{
  "contractName": "SupplyChain",
  "abi": [
    {
      "constant": true,
      "inputs": [],
      "name": "skuCount",
      "outputs": [
        {
          "name": "",
          "type": "uint256"
        }
      ],
      "payable": false,
      "stateMutability": "view",
      "type": "function"
    },
    {
      "constant": true,
      "inputs": [],
      "name": "owner",
      "outputs": [
        {
          "name": "",
          "type": "address"
        }
      ],
      "payable": false,
      "stateMutability": "view",
      "type": "function"
    },
    {
      "constant": true,
      "inputs": [
        {
          "name": "",
          "type": "uint256"
        }
      ],
      "name": "items",
      "outputs": [
        {
          "name": "name",
          "type": "string"
        },
        {
          "name": "sku",
          "type": "uint256"
        },
        {
          "name": "price",
          "type": "uint256"
        },
        {
          "name": "state",
          "type": "uint8"
        },
        {
          "name": "seller",
          "type": "address"
        },
        {
          "name": "buyer",
          "type": "address"
        }
      ],
      "payable": false,
      "stateMutability": "view",
      "type": "function"
    },
    {
      "inputs": [],
      "payable": false,
      "stateMutability": "nonpayable",
      "type": "constructor"
    },
    {
      "anonymous": false,
      "inputs": [
        {
          "indexed": false,
          "name": "sku",
          "type": "uint256"
        }
      ],
      "name": "LogForSale",
      "type": "event"
    },
    {
      "anonymous": false,
      "inputs": [
        {
          "indexed": false,
          "name": "sku",
          "type": "uint256"
        }
      ],
      "name": "LogSold",
      "type": "event"
    },
    {
      "anonymous": false,
      "inputs": [
        {
          "indexed": false,
          "name": "sku",
          "type": "uint256"
        }
      ],
      "name": "LogShipped",
      "type": "event"
    },
    {
      "anonymous": false,
      "inputs": [
        {
          "indexed": false,
          "name": "sku",
          "type": "uint256"
        }
      ],
      "name": "LogReceived",
      "type": "event"
    },
    {
      "constant": false,
      "inputs": [
        {
          "name": "_name",
          "type": "string"
        },
        {
          "name": "_price",
          "type": "uint256"
        }
      ],
      "name": "addItem",
      "outputs": [
        {
          "name": "",
          "type": "bool"
        }
      ],
      "payable": false,
      "stateMutability": "nonpayable",
      "type": "function"
    },
    {
      "constant": false,
      "inputs": [
        {
          "name": "_sku",
          "type": "uint256"
        }
      ],
      "name": "buyItem",
      "outputs": [],
      "payable": true,
      "stateMutability": "payable",
      "type": "function"
    },
    {
      "constant": false,
      "inputs": [
        {
          "name": "_sku",
          "type": "uint256"
        }
      ],
      "name": "shipItem",
      "outputs": [],
      "payable": false,
      "stateMutability": "nonpayable",
      "type": "function"
    },
    {
      "constant": false,
      "inputs": [
        {
          "name": "_sku",
          "type": "uint256"
        }
      ],
      "name": "receiveItem",
      "outputs": [],
      "payable": false,
      "stateMutability": "nonpayable",
      "type": "function"
    }
  ],
  "bytecode": "0x608060405234801561001057600080fd5b50336000806101000a81548173ffffffffffffffffffffffffffffffffffffffff021916908373ffffffffffffffffffffffffffffffffffffffff1602179055506000600181905550610bee806100686000396000f300608060405260043610610083576000357c0100000000000000000000000000000000000000000000000000000000900463ffffffff168063227024731461008857806362d6bbdf146100b35780638da5cb5b1461013e578063a26be99914610195578063bfb231d2146101c2578063e7fb74c7146102f1578063f61c899a14610311575b600080fd5b34801561009457600080fd5b5061009d61033e565b6040518082815260200191505060405180910390f35b3480156100bf57600080fd5b50610124600480360381019080803590602001908201803590602001908080601f016020809104026020016040519081016040528093929190818152602001838380828437820191505050505050919291929080359060200190929190505050610344565b604051808215151515815260200191505060405180910390f35b34801561014a57600080fd5b506101536104fd565b604051808273ffffffffffffffffffffffffffffffffffffffff1673ffffffffffffffffffffffffffffffffffffffff16815260200191505060405180910390f35b3480156101a157600080fd5b506101c060048036038101908080359060200190929190505050610522565b005b3480156101ce57600080fd5b506101ed60048036038101908080359060200190929190505050610655565b604051808060200187815260200186815260200185600381111561020d57fe5b60ff1681526020018473ffffffffffffffffffffffffffffffffffffffff1673ffffffffffffffffffffffffffffffffffffffff1681526020018373ffffffffffffffffffffffffffffffffffffffff1673ffffffffffffffffffffffffffffffffffffffff168152602001828103825288818151815260200191508051906020019080838360005b838110156102b1578082015181840152602081019050610296565b50505050905090810190601f1680156102de5780820380516001836020036101000a031916815260200191505b5097505050505050505060405180910390f35b61030f60048036038101908080359060200190929190505050610776565b005b34801561031d57600080fd5b5061033c600480360381019080803590602001909291905050506109e9565b005b60015481565b60007f4627c48065af2a9648cbecdd4b9da340c00e501243cd49a8a71c30c987e8b7616001546040518082815260200191505060405180910390a160c0604051908101604052808481526020016001548152602001838152602001600060038111156103ac57fe5b81526020013373ffffffffffffffffffffffffffffffffffffffff168152602001600073ffffffffffffffffffffffffffffffffffffffff168152506002600060015481526020019081526020016000206000820151816000019080519060200190610419929190610b1d565b50602082015181600101556040820151816002015560608201518160030160006101000a81548160ff0219169083600381111561045257fe5b021790555060808201518160030160016101000a81548173ffffffffffffffffffffffffffffffffffffffff021916908373ffffffffffffffffffffffffffffffffffffffff16021790555060a08201518160040160006101000a81548173ffffffffffffffffffffffffffffffffffffffff021916908373ffffffffffffffffffffffffffffffffffffffff16021790555090505060018054016001819055506001905092915050565b6000809054906101000a900473ffffffffffffffffffffffffffffffffffffffff1681565b806002600381111561053057fe5b6002600083815260200190815260200160002060030160009054906101000a900460ff16600381111561055f57fe5b14151561056b57600080fd5b6002600083815260200190815260200160002060040160009054906101000a900473ffffffffffffffffffffffffffffffffffffffff168073ffffffffffffffffffffffffffffffffffffffff163373ffffffffffffffffffffffffffffffffffffffff161415156105dc57600080fd5b6003808111156105e857fe5b6002600085815260200190815260200160002060030160009054906101000a900460ff16600381111561061757fe5b50507f5a98827d06afe0e04647b3aed26f1ffb77171ad9ac41603c4ef623a6638798c1836040518082815260200191505060405180910390a1505050565b6002602052806000526040600020600091509050806000018054600181600116156101000203166002900480601f0160208091040260200160405190810160405280929190818152602001828054600181600116156101000203166002900480156107015780601f106106d657610100808354040283529160200191610701565b820191906000526020600020905b8154815290600101906020018083116106e457829003601f168201915b5050505050908060010154908060020154908060030160009054906101000a900460ff16908060030160019054906101000a900473ffffffffffffffffffffffffffffffffffffffff16908060040160009054906101000a900473ffffffffffffffffffffffffffffffffffffffff16905086565b806000600381111561078457fe5b6002600083815260200190815260200160002060030160009054906101000a900460ff1660038111156107b357fe5b1415156107bf57600080fd5b60026000838152602001908152602001600020600201548034101515156107e557600080fd5b826000806002600087815260200190815260200160002060030160019054906101000a900473ffffffffffffffffffffffffffffffffffffffff1673ffffffffffffffffffffffffffffffffffffffff166108fc60026000898152602001908152602001600020600201549081150290604051600060405180830381858888f1935050505015801561087b573d6000803e3d6000fd5b50336002600088815260200190815260200160002060040160006101000a81548173ffffffffffffffffffffffffffffffffffffffff021916908373ffffffffffffffffffffffffffffffffffffffff160217905550600160038111156108de57fe5b6002600088815260200190815260200160002060030160009054906101000a900460ff16600381111561090d57fe5b50507fe64ca8c671e48636f85f3008c1dd538e36bfa74fb6f2790b56b72fcc33b879ef866040518082815260200191505060405180910390a16002600084815260200190815260200160002060020154915081340390506002600084815260200190815260200160002060040160009054906101000a900473ffffffffffffffffffffffffffffffffffffffff1673ffffffffffffffffffffffffffffffffffffffff166108fc829081150290604051600060405180830381858888f193505050501580156109e0573d6000803e3d6000fd5b50505050505050565b80600160038111156109f757fe5b6002600083815260200190815260200160002060030160009054906101000a900460ff166003811115610a2657fe5b141515610a3257600080fd5b6002600083815260200190815260200160002060030160019054906101000a900473ffffffffffffffffffffffffffffffffffffffff168073ffffffffffffffffffffffffffffffffffffffff163373ffffffffffffffffffffffffffffffffffffffff16141515610aa357600080fd5b60026003811115610ab057fe5b6002600085815260200190815260200160002060030160009054906101000a900460ff166003811115610adf57fe5b50507feaf695929fec8154f0eafe7248c0e16855eb9ad09e623be92f669e544d53e856836040518082815260200191505060405180910390a1505050565b828054600181600116156101000203166002900490600052602060002090601f016020900481019282601f10610b5e57805160ff1916838001178555610b8c565b82800160010185558215610b8c579182015b82811115610b8b578251825591602001919060010190610b70565b5b509050610b999190610b9d565b5090565b610bbf91905b80821115610bbb576000816000905550600101610ba3565b5090565b905600a165627a7a72305820c70bb502bd49e6714ac15b9b31f266c3dab2d98eb1d4bee2b533b8f90efbddde0029",
  "source": "pragma solidity ^0.4.23;\n\ncontract SupplyChain {\n\n/* set owner */\naddress public owner;\n\n/* Add a variable called skuCount to track the most recent sku # */\nuint public skuCount;\n\n/* Add a line that creates a public mapping that maps the SKU (a number) to an Item.\nCall this mappings items\n*/\nmapping (uint => Item) public items;\n\n/* Add a line that creates an enum called State. This should have 4 states\nForSale\nSold\nShipped\nReceived\n(declaring them in this order is important for testing)\n*/\nenum State { ForSale, Sold, Shipped, Received }\n\n/* Create a struct named Item.\nHere, add a name, sku, price, state, seller, and buyer\nWe've left you to figure out what the appropriate types are,\nif you need help you can ask around :)\n*/\nstruct Item {\n  string name;\n  uint sku;\n  uint price;\n  State state;\n  address seller;\n  address buyer;\n}\n\n/* Create 4 events with the same name as each possible State (see above)\nEach event should accept one argument, the sku*/\nevent LogForSale(uint sku);\nevent LogSold(uint sku);\nevent LogShipped(uint sku);\nevent LogReceived(uint sku);\n\n/* Create a modifer that checks if the msg.sender is the owner of the contract */\nmodifier isOwner () { require (msg.sender == owner); _;}\n\nmodifier verifyCaller (address _address) { require (msg.sender == _address); _;}\n\nmodifier paidEnough(uint _price) { require(msg.value >= _price); _;}\n\nmodifier checkValue(uint _sku) {\n//refund them after pay for item (why it is before, _ checks for logic before func)\n_;\nuint _price = items[_sku].price;\nuint amountToRefund = msg.value - _price;\nitems[_sku].buyer.transfer(amountToRefund);\n}\n\n/* For each of the following modifiers, use what you learned about modifiers\nto give them functionality. For example, the forSale modifier should require\nthat the item with the given sku has the state ForSale. */\nmodifier forSale (uint _sku) {\nrequire(items[_sku].state == State.ForSale);\n  _;\n}\n\nmodifier sold (uint _sku) {\nrequire(items[_sku].state == State.Sold);\n  _;\n}\n\nmodifier shipped (uint _sku) {\nrequire(items[_sku].state == State.Shipped);\n  _;\n}\n\nmodifier received (uint _sku) {\nrequire(items[_sku].state == State.Received);\n  _;\n}\n\n\nconstructor() public {\n  owner = msg.sender;\n  skuCount = 0;\n}\n\nfunction addItem(string _name, uint _price) public returns(bool){\nemit LogForSale(skuCount);\nitems[skuCount] = Item({name: _name, sku: skuCount, price: _price, state: State.ForSale, seller: msg.sender, buyer: 0});\nskuCount = skuCount + 1;\nreturn true;\n}\n\n/* Add a keyword so the function can be paid. This function should transfer money\nto the seller, set the buyer as the person who called this transaction, and set the state\nto Sold. Be careful, this function should use 3 modifiers to check if the item is for sale,\nif the buyer paid enough, and check the value after the function is called to make sure the buyer is\nrefunded any excess ether sent. Remember to call the event associated with this function!*/\n\nfunction buyItem(uint _sku)\npublic payable forSale(_sku) paidEnough(items[_sku].price) checkValue(_sku) {\n  items[_sku].seller.transfer(items[_sku].price);\n  items[_sku].buyer = msg.sender;\n  items[_sku].state == State.Sold;\n  emit LogSold(_sku);\n}\n\n/* Add 2 modifiers to check if the item is sold already, and that the person calling this function\nis the seller. Change the state of the item to shipped. Remember to call the event associated with this function!*/\nfunction shipItem(uint _sku) sold(_sku) verifyCaller(items[_sku].seller) \npublic {\n   items[_sku].state == State.Shipped;\n   emit LogShipped(_sku);\n}\n\n/* Add 2 modifiers to check if the item is shipped already, and that the person calling this function\nis the buyer. Change the state of the item to received. Remember to call the event associated with this function!*/\nfunction receiveItem(uint _sku) shipped(_sku) verifyCaller(items[_sku].buyer)\npublic {\n   items[_sku].state == State.Received;\n   emit LogReceived(_sku);\n}\n\n/* We have these functions completed so we can run tests, just ignore it :) \n  function fetchItem(uint _sku) public view returns (string name, uint sku, uint price, uint state, address seller, address buyer) {\n  name = items[_sku].name;\n  sku = items[_sku].sku;\n  price = items[_sku].price;\n  state = uint(items[_sku].state);\n  seller = items[_sku].seller;\n  buyer = items[_sku].buyer;\n  return (name, sku, price, state, seller, buyer);\n  }*/\n\n\n}\n",
  "sourcePath": "/home/mdgadmin/Ganache/supply-chain-cvillegas31/contracts/SupplyChain.sol",
  "compiler": {
    "name": "solc",
    "version": "0.4.24+commit.e67f0147.Emscripten.clang"
  },
  "schemaVersion": "2.0.1",
  "updatedAt": "2018-12-04T20:08:54.069Z"
}